3100000120181220E    300661077100020030401                                   300661077100020030401                                                                                                                                              
3400000220211220E0066149890000122140469732OFFICE NATL DU AAAAAAAA            300661077100020030401ZZZZZZZZ                                                                                                              211220      000000171200
3400000320211220E0066149890000122140469732OFFICE NATL DU AAAAAAAA            300661077100020030401ZZZZZZZZ                                                                                                              211220      000000287280
3900000420211220E    300661077100020030401                                   300661077100020030401                                                                                                                                  000000465270
3100000120211220E    300661077100020030401                                   300661077100020030401                                                                                                                                              
3400000220221220E0066300030302100020116383CHIC WWW WWWWWWW                   300661077100020030401ZZZZ ZZZZ                                             F2012017                                                        221220      000000011760
3900000320221220E    300661077100020030401                                   300661077100020030401                                                                                                                                  000000063330

